{"abi":[{"type":"function","name":"verifyProof","inputs":[{"name":"_pA","type":"uint256[2]","internalType":"uint256[2]"},{"name":"_pB","type":"uint256[2][2]","internalType":"uint256[2][2]"},{"name":"_pC","type":"uint256[2]","internalType":"uint256[2]"},{"name":"_pubSignals","type":"uint256[4]","internalType":"uint256[4]"}],"outputs":[{"name":"","type":"bool","internalType":"bool"}],"stateMutability":"view"}],"bytecode":{"object":"0x608060405234801561001057600080fd5b50610685806100206000396000f3fe608060405234801561001057600080fd5b506004361061002b5760003560e01c80635fe8c13b14610030575b600080fd5b61004361003e3660046105f5565b610057565b604051901515815260200160405180910390f35b6000610568565b7f30644e72e131a029b85045b68181585d2833e84879b9709143e1f593f0000001811061008f576000805260206000f35b50565b600060405183815284602082015285604082015260408160608360076107d05a03fa9150816100c5576000805260206000f35b825160408201526020830151606082015260408360808360066107d05a03fa915050806100f6576000805260206000f35b5050505050565b7f2d83116ba1b629e3dab6541d7d50c5a9eed8274db9e69751dc7f9877718ef7c385527ebf4e82c1413650233ddea423114e8638716ed2583083ced83228913a67d05260208601526000608086018661019987357f0ce350ffce19bedf07f971ac48277261ed3247089594d434ba7347950981e7c67f21a04ff95566e667ae2a2088f174ab77144e8d5cc9f8b4d97c5f5b524b9de5f284610092565b6101e960208801357f225b636001adef1ef96083e72c3c2ede3f60cb57fc994e8f2fcee0775c1353b57f07d9b85c6218150e850abeffabe80f9abb4af5f5fc77c9e1a4a63e4c8600bfec84610092565b61023960408801357f149d6f1d52b688e24d2ffdb7da2625c882e7e87ceee7eb82f531271ffb4b5ded7f07b93d8a7cb3d77bc740425b63a6347b442b9af6ec8a1c6138dae27a04d34b0f84610092565b61028860608801357e2802bbdd52c87642892e05941c6ac04a1b3689287e57ef69b4666fb2c6d3ab7f090b1c02f52c764a291182a05d773b917db8ce41497958b96ebc54ee5e8e93cc84610092565b50823581527f30644e72e131a029b85045b68181585d97816a916871ca8d3c208c16d87cfd4760208401357f30644e72e131a029b85045b68181585d97816a916871ca8d3c208c16d87cfd4703066020820152833560408201526020840135606082015260408401356080820152606084013560a08201527f1a2063e6a2db56af1101e230a760c162443109b78fc5b67e558fdf313b457bbf60c08201527f0d6afa69c1c17ed591f93067dad8ff5c89cf6ca9468d7c0bb73e406e6631988360e08201527f2d2e8608fcac64e64a99bf3175058c3d6e5ea88f070fc1203410bc8c6ab0d4866101008201527f12f6b9ab1b926392091591b45423ae6ca00a960fc7a4e01f1b53aa78a09749296101208201527f2d7dbc7be9e5b97d14d3a7906f066c721606e9f8aa1030abc4d9bcc08ca8c1786101408201527f0f8ea0724db69e4b8c68c1026354769a7c3ebe772168293bdaefc79adeded63c610160820152600087015161018082015260206000018701516101a08201527f198e9393920d483a7260bfb731fb5d25f1aa493335a9e71297e485b7aef312c26101c08201527f1800deef121f1e76426a00665e5c4479674322d4f75edadd46debd5cd992f6ed6101e08201527f090689d0585ff075ec9e99ad690c3395bc4b313370b38ef355acdadcd122975b6102008201527f12c85ea5db8c6deb4aab71808dcb408fe3d1e7690c43d37b4ce6cc0166fa7daa610220820152843561024082015260208501356102608201527f15eb9c1f693ada31fbdc972168fa34a3a279862a27c79cebdc6aee42dec2415e6102808201527f13aa364fe7f5f720c331404e9d4ae4d730e63119ed45f6f1f5c285b92ae594326102a08201527f28d137ee1360851d85b7ab09d370b2780a57d9600e27b2106638761fee14853a6102c08201527f25bc1f55f6fc92ac1694757bb9af38cc36f31b76d9afaeb6b85b6ff8de6ecb366102e08201526020816103008360086107d05a03fa9051169695505050505050565b6040516103808101604052610580600084013561005e565b61058d602084013561005e565b61059a604084013561005e565b6105a7606084013561005e565b6105b4608084013561005e565b6105c1818486888a6100fd565b90508060005260206000f35b80604081018310156105de57600080fd5b92915050565b80608081018310156105de57600080fd5b600080600080610180858703121561060c57600080fd5b61061686866105cd565b935061062586604087016105e4565b92506106348660c087016105cd565b91506106448661010087016105e4565b90509295919450925056fea264697066735822122073dcbcfbbda40a62ba26f126c16ac8221818d76b6fd68ee3bc9e4d81b87db4a764736f6c63430008180033","linkReferences":{}},"methodIdentifiers":{"verifyProof(uint256[2],uint256[2][2],uint256[2],uint256[4])":"5fe8c13b"},"id":0}